{
  "contractName": "Network",
  "abi": [
    {
      "inputs": [],
      "payable": false,
      "stateMutability": "nonpayable",
      "type": "constructor"
    },
    {
      "anonymous": false,
      "inputs": [
        {
          "indexed": false,
          "internalType": "string",
          "name": "_name",
          "type": "string"
        }
      ],
      "name": "FindUsernameEvent",
      "type": "event"
    },
    {
      "anonymous": false,
      "inputs": [
        {
          "indexed": false,
          "internalType": "string",
          "name": "_content",
          "type": "string"
        }
      ],
      "name": "NewBlogAdded",
      "type": "event"
    },
    {
      "anonymous": false,
      "inputs": [
        {
          "indexed": false,
          "internalType": "string",
          "name": "_content",
          "type": "string"
        }
      ],
      "name": "NewMailAdded",
      "type": "event"
    },
    {
      "anonymous": false,
      "inputs": [
        {
          "indexed": false,
          "internalType": "string",
          "name": "_name",
          "type": "string"
        }
      ],
      "name": "SetUsernameEvent",
      "type": "event"
    },
    {
      "constant": true,
      "inputs": [
        {
          "internalType": "uint256",
          "name": "",
          "type": "uint256"
        }
      ],
      "name": "blogs",
      "outputs": [
        {
          "internalType": "string",
          "name": "name",
          "type": "string"
        },
        {
          "internalType": "string",
          "name": "content",
          "type": "string"
        }
      ],
      "payable": false,
      "stateMutability": "view",
      "type": "function"
    },
    {
      "constant": true,
      "inputs": [
        {
          "internalType": "uint256",
          "name": "",
          "type": "uint256"
        }
      ],
      "name": "mails",
      "outputs": [
        {
          "internalType": "string",
          "name": "from",
          "type": "string"
        },
        {
          "internalType": "string",
          "name": "to",
          "type": "string"
        },
        {
          "internalType": "string",
          "name": "subject",
          "type": "string"
        },
        {
          "internalType": "string",
          "name": "content",
          "type": "string"
        }
      ],
      "payable": false,
      "stateMutability": "view",
      "type": "function"
    },
    {
      "constant": true,
      "inputs": [],
      "name": "num",
      "outputs": [
        {
          "internalType": "uint256",
          "name": "",
          "type": "uint256"
        }
      ],
      "payable": false,
      "stateMutability": "view",
      "type": "function"
    },
    {
      "constant": true,
      "inputs": [],
      "name": "numOptions",
      "outputs": [
        {
          "internalType": "uint256",
          "name": "",
          "type": "uint256"
        }
      ],
      "payable": false,
      "stateMutability": "view",
      "type": "function"
    },
    {
      "constant": true,
      "inputs": [
        {
          "internalType": "address",
          "name": "",
          "type": "address"
        }
      ],
      "name": "set",
      "outputs": [
        {
          "internalType": "bool",
          "name": "",
          "type": "bool"
        }
      ],
      "payable": false,
      "stateMutability": "view",
      "type": "function"
    },
    {
      "constant": true,
      "inputs": [
        {
          "internalType": "address",
          "name": "",
          "type": "address"
        }
      ],
      "name": "user",
      "outputs": [
        {
          "internalType": "string",
          "name": "",
          "type": "string"
        }
      ],
      "payable": false,
      "stateMutability": "view",
      "type": "function"
    },
    {
      "constant": true,
      "inputs": [
        {
          "internalType": "uint256",
          "name": "",
          "type": "uint256"
        }
      ],
      "name": "username",
      "outputs": [
        {
          "internalType": "string",
          "name": "",
          "type": "string"
        }
      ],
      "payable": false,
      "stateMutability": "view",
      "type": "function"
    },
    {
      "constant": false,
      "inputs": [
        {
          "internalType": "string",
          "name": "_name",
          "type": "string"
        }
      ],
      "name": "setusername",
      "outputs": [],
      "payable": false,
      "stateMutability": "nonpayable",
      "type": "function"
    },
    {
      "constant": false,
      "inputs": [
        {
          "internalType": "string",
          "name": "_name",
          "type": "string"
        }
      ],
      "name": "findusername",
      "outputs": [],
      "payable": false,
      "stateMutability": "nonpayable",
      "type": "function"
    },
    {
      "constant": false,
      "inputs": [
        {
          "internalType": "string",
          "name": "_content",
          "type": "string"
        }
      ],
      "name": "newBlog",
      "outputs": [],
      "payable": false,
      "stateMutability": "nonpayable",
      "type": "function"
    },
    {
      "constant": false,
      "inputs": [
        {
          "internalType": "string",
          "name": "_to",
          "type": "string"
        },
        {
          "internalType": "string",
          "name": "_subject",
          "type": "string"
        },
        {
          "internalType": "string",
          "name": "_content",
          "type": "string"
        }
      ],
      "name": "newMail",
      "outputs": [],
      "payable": false,
      "stateMutability": "nonpayable",
      "type": "function"
    }
  ],
  "bytecode": "0x608060405234801561001057600080fd5b50611d20806100206000396000f3fe608060405234801561001057600080fd5b50600436106100a95760003560e01c80634e70b1dc116100715780634e70b1dc146105b757806380f052d8146105d557806381e7e20e146106e8578063b5189630146107a5578063c180fb861461084c578063c4d6334214610907576100a9565b80632801617e146100ae5780632fdef9c31461010a5780633a9b5290146102f55780634b97aed9146103b05780634cbda91e146103ce575b600080fd5b6100f0600480360360208110156100c457600080fd5b81019080803573ffffffffffffffffffffffffffffffffffffffff1690602001909291905050506109c2565b604051808215151515815260200191505060405180910390f35b6101366004803603602081101561012057600080fd5b81019080803590602001909291905050506109e2565b6040518080602001806020018060200180602001858103855289818151815260200191508051906020019080838360005b83811015610182578082015181840152602081019050610167565b50505050905090810190601f1680156101af5780820380516001836020036101000a031916815260200191505b50858103845288818151815260200191508051906020019080838360005b838110156101e85780820151818401526020810190506101cd565b50505050905090810190601f1680156102155780820380516001836020036101000a031916815260200191505b50858103835287818151815260200191508051906020019080838360005b8381101561024e578082015181840152602081019050610233565b50505050905090810190601f16801561027b5780820380516001836020036101000a031916815260200191505b50858103825286818151815260200191508051906020019080838360005b838110156102b4578082015181840152602081019050610299565b50505050905090810190601f1680156102e15780820380516001836020036101000a031916815260200191505b509850505050505050505060405180910390f35b6103ae6004803603602081101561030b57600080fd5b810190808035906020019064010000000081111561032857600080fd5b82018360208201111561033a57600080fd5b8035906020019184600183028401116401000000008311171561035c57600080fd5b91908080601f016020809104026020016040519081016040528093929190818152602001838380828437600081840152601f19601f820116905080830192505050505050509192919290505050610c72565b005b6103b8611051565b6040518082815260200191505060405180910390f35b6105b5600480360360608110156103e457600080fd5b810190808035906020019064010000000081111561040157600080fd5b82018360208201111561041357600080fd5b8035906020019184600183028401116401000000008311171561043557600080fd5b91908080601f016020809104026020016040519081016040528093929190818152602001838380828437600081840152601f19601f8201169050808301925050505050505091929192908035906020019064010000000081111561049857600080fd5b8201836020820111156104aa57600080fd5b803590602001918460018302840111640100000000831117156104cc57600080fd5b91908080601f016020809104026020016040519081016040528093929190818152602001838380828437600081840152601f19601f8201169050808301925050505050505091929192908035906020019064010000000081111561052f57600080fd5b82018360208201111561054157600080fd5b8035906020019184600183028401116401000000008311171561056357600080fd5b91908080601f016020809104026020016040519081016040528093929190818152602001838380828437600081840152601f19601f820116905080830192505050505050509192919290505050611057565b005b6105bf611488565b6040518082815260200191505060405180910390f35b610601600480360360208110156105eb57600080fd5b810190808035906020019092919050505061148e565b604051808060200180602001838103835285818151815260200191508051906020019080838360005b8381101561064557808201518184015260208101905061062a565b50505050905090810190601f1680156106725780820380516001836020036101000a031916815260200191505b50838103825284818151815260200191508051906020019080838360005b838110156106ab578082015181840152602081019050610690565b50505050905090810190601f1680156106d85780820380516001836020036101000a031916815260200191505b5094505050505060405180910390f35b61072a600480360360208110156106fe57600080fd5b81019080803573ffffffffffffffffffffffffffffffffffffffff1690602001909291905050506115e2565b6040518080602001828103825283818151815260200191508051906020019080838360005b8381101561076a57808201518184015260208101905061074f565b50505050905090810190601f1680156107975780820380516001836020036101000a031916815260200191505b509250505060405180910390f35b6107d1600480360360208110156107bb57600080fd5b8101908080359060200190929190505050611692565b6040518080602001828103825283818151815260200191508051906020019080838360005b838110156108115780820151818401526020810190506107f6565b50505050905090810190601f16801561083e5780820380516001836020036101000a031916815260200191505b509250505060405180910390f35b6109056004803603602081101561086257600080fd5b810190808035906020019064010000000081111561087f57600080fd5b82018360208201111561089157600080fd5b803590602001918460018302840111640100000000831117156108b357600080fd5b91908080601f016020809104026020016040519081016040528093929190818152602001838380828437600081840152601f19601f82011690508083019250505050505050919291929050505061174b565b005b6109c06004803603602081101561091d57600080fd5b810190808035906020019064010000000081111561093a57600080fd5b82018360208201111561094c57600080fd5b8035906020019184600183028401116401000000008311171561096e57600080fd5b91908080601f016020809104026020016040519081016040528093929190818152602001838380828437600081840152601f19601f82011690508083019250505050505050919291929050505061195c565b005b60006020528060005260406000206000915054906101000a900460ff1681565b6005602052806000526040600020600091509050806000018054600181600116156101000203166002900480601f016020809104026020016040519081016040528092919081815260200182805460018160011615610100020316600290048015610a8e5780601f10610a6357610100808354040283529160200191610a8e565b820191906000526020600020905b815481529060010190602001808311610a7157829003601f168201915b505050505090806001018054600181600116156101000203166002900480601f016020809104026020016040519081016040528092919081815260200182805460018160011615610100020316600290048015610b2c5780601f10610b0157610100808354040283529160200191610b2c565b820191906000526020600020905b815481529060010190602001808311610b0f57829003601f168201915b505050505090806002018054600181600116156101000203166002900480601f016020809104026020016040519081016040528092919081815260200182805460018160011615610100020316600290048015610bca5780601f10610b9f57610100808354040283529160200191610bca565b820191906000526020600020905b815481529060010190602001808311610bad57829003601f168201915b505050505090806003018054600181600116156101000203166002900480601f016020809104026020016040519081016040528092919081815260200182805460018160011615610100020316600290048015610c685780601f10610c3d57610100808354040283529160200191610c68565b820191906000526020600020905b815481529060010190602001808311610c4b57829003601f168201915b5050505050905084565b6000803373ffffffffffffffffffffffffffffffffffffffff1673ffffffffffffffffffffffffffffffffffffffff16815260200190815260200160002060009054906101000a900460ff1615610d31576040517f08c379a00000000000000000000000000000000000000000000000000000000081526004018080602001828103825260148152602001807f616c72656164792073657420757365726e616d6500000000000000000000000081525060200191505060405180910390fd5b60008090505b600280549050811015610ec757816040516020018082805190602001908083835b60208310610d7b5780518252602082019150602081019050602083039250610d58565b6001836020036101000a0380198251168184511680821785525050505050509050019150506040516020818303038152906040528051906020012060028281548110610dc357fe5b906000526020600020016040516020018082805460018160011615610100020316600290048015610e2b5780601f10610e09576101008083540402835291820191610e2b565b820191906000526020600020905b815481529060010190602001808311610e17575b5050915050604051602081830303815290604052805190602001201415610eba576040517f08c379a000000000000000000000000000000000000000000000000000000000815260040180806020018281038252600e8152602001807f757365726e616d652074616b656e00000000000000000000000000000000000081525060200191505060405180910390fd5b8080600101915050610d37565b5060016000803373ffffffffffffffffffffffffffffffffffffffff1673ffffffffffffffffffffffffffffffffffffffff16815260200190815260200160002060006101000a81548160ff02191690831515021790555080600160003373ffffffffffffffffffffffffffffffffffffffff1673ffffffffffffffffffffffffffffffffffffffff1681526020019081526020016000209080519060200190610f72929190611bbf565b506002819080600181540180825580915050906001820390600052602060002001600090919290919091509080519060200190610fb0929190611bbf565b50507fcb5134adf68495f117c64f39d3e91f8f7f23315733a5882c8b1478776ea7f8f2816040518080602001828103825283818151815260200191508051906020019080838360005b83811015611014578082015181840152602081019050610ff9565b50505050905090810190601f1680156110415780820380516001836020036101000a031916815260200191505b509250505060405180910390a150565b60045481565b6000803373ffffffffffffffffffffffffffffffffffffffff1673ffffffffffffffffffffffffffffffffffffffff16815260200190815260200160002060009054906101000a900460ff16611115576040517f08c379a00000000000000000000000000000000000000000000000000000000081526004018080602001828103825260108152602001807f757365726e616d65206e6f74207365740000000000000000000000000000000081525060200191505060405180910390fd5b60006001905060008090505b60028054905081101561125057846040516020018082805190602001908083835b602083106111655780518252602082019150602081019050602083039250611142565b6001836020036101000a03801982511681845116808217855250505050505090500191505060405160208183030381529060405280519060200120600282815481106111ad57fe5b9060005260206000200160405160200180828054600181600116156101000203166002900480156112155780601f106111f3576101008083540402835291820191611215565b820191906000526020600020905b815481529060010190602001808311611201575b505091505060405160208183030381529060405280519060200120141561123f5760019150611250565b600091508080600101915050611121565b5060011515811515141561140d5760066000815460010191905081905550600160003373ffffffffffffffffffffffffffffffffffffffff1673ffffffffffffffffffffffffffffffffffffffff16815260200190815260200160002060056000600654815260200190815260200160002060000190805460018160011615610100020316600290046112e4929190611c3f565b50836005600060065481526020019081526020016000206001019080519060200190611311929190611bbf565b5082600560006006548152602001908152602001600020600201908051906020019061133e929190611bbf565b5081600560006006548152602001908152602001600020600301908051906020019061136b929190611bbf565b507f7f7bc5bcdcabf3dd0bd479fef135ee46f6cb1cc65bb74becad6b53d04e21d11d826040518080602001828103825283818151815260200191508051906020019080838360005b838110156113ce5780820151818401526020810190506113b3565b50505050905090810190601f1680156113fb5780820380516001836020036101000a031916815260200191505b509250505060405180910390a1611482565b6000611481576040517f08c379a00000000000000000000000000000000000000000000000000000000081526004018080602001828103825260118152602001807f6e6f20757365726e616d6520666f756e6400000000000000000000000000000081525060200191505060405180910390fd5b5b50505050565b60065481565b6003602052806000526040600020600091509050806000018054600181600116156101000203166002900480601f01602080910402602001604051908101604052809291908181526020018280546001816001161561010002031660029004801561153a5780601f1061150f5761010080835404028352916020019161153a565b820191906000526020600020905b81548152906001019060200180831161151d57829003601f168201915b505050505090806001018054600181600116156101000203166002900480601f0160208091040260200160405190810160405280929190818152602001828054600181600116156101000203166002900480156115d85780601f106115ad576101008083540402835291602001916115d8565b820191906000526020600020905b8154815290600101906020018083116115bb57829003601f168201915b5050505050905082565b60016020528060005260406000206000915090508054600181600116156101000203166002900480601f01602080910402602001604051908101604052809291908181526020018280546001816001161561010002031660029004801561168a5780601f1061165f5761010080835404028352916020019161168a565b820191906000526020600020905b81548152906001019060200180831161166d57829003601f168201915b505050505081565b6002818154811061169f57fe5b906000526020600020016000915090508054600181600116156101000203166002900480601f0160208091040260200160405190810160405280929190818152602001828054600181600116156101000203166002900480156117435780601f1061171857610100808354040283529160200191611743565b820191906000526020600020905b81548152906001019060200180831161172657829003601f168201915b505050505081565b6000803373ffffffffffffffffffffffffffffffffffffffff1673ffffffffffffffffffffffffffffffffffffffff16815260200190815260200160002060009054906101000a900460ff16611809576040517f08c379a00000000000000000000000000000000000000000000000000000000081526004018080602001828103825260108152602001807f757365726e616d65206e6f74207365740000000000000000000000000000000081525060200191505060405180910390fd5b60046000815460010191905081905550600160003373ffffffffffffffffffffffffffffffffffffffff1673ffffffffffffffffffffffffffffffffffffffff168152602001908152602001600020600360006004548152602001908152602001600020600001908054600181600116156101000203166002900461188f929190611c3f565b508060036000600454815260200190815260200160002060010190805190602001906118bc929190611bbf565b507f35169670cfa20903961ce9190b2b516d7e71e38579a6272d759b898ed9483fb1816040518080602001828103825283818151815260200191508051906020019080838360005b8381101561191f578082015181840152602081019050611904565b50505050905090810190601f16801561194c5780820380516001836020036101000a031916815260200191505b509250505060405180910390a150565b60006001905060008090505b600280549050811015611a9757826040516020018082805190602001908083835b602083106119ac5780518252602082019150602081019050602083039250611989565b6001836020036101000a03801982511681845116808217855250505050505090500191505060405160208183030381529060405280519060200120600282815481106119f457fe5b906000526020600020016040516020018082805460018160011615610100020316600290048015611a5c5780601f10611a3a576101008083540402835291820191611a5c565b820191906000526020600020905b815481529060010190602001808311611a48575b5050915050604051602081830303815290604052805190602001201415611a865760019150611a97565b600091508080600101915050611968565b50600115158115151415611b46577f14fa90851c56e027492ff30661a10665053ee4a54379344e4bb15face8469baa826040518080602001828103825283818151815260200191508051906020019080838360005b83811015611b07578082015181840152602081019050611aec565b50505050905090810190601f168015611b345780820380516001836020036101000a031916815260200191505b509250505060405180910390a1611bbb565b6000611bba576040517f08c379a00000000000000000000000000000000000000000000000000000000081526004018080602001828103825260118152602001807f6e6f20757365726e616d6520666f756e6400000000000000000000000000000081525060200191505060405180910390fd5b5b5050565b828054600181600116156101000203166002900490600052602060002090601f016020900481019282601f10611c0057805160ff1916838001178555611c2e565b82800160010185558215611c2e579182015b82811115611c2d578251825591602001919060010190611c12565b5b509050611c3b9190611cc6565b5090565b828054600181600116156101000203166002900490600052602060002090601f016020900481019282601f10611c785780548555611cb5565b82800160010185558215611cb557600052602060002091601f016020900482015b82811115611cb4578254825591600101919060010190611c99565b5b509050611cc29190611cc6565b5090565b611ce891905b80821115611ce4576000816000905550600101611ccc565b5090565b9056fea265627a7a723158203677f1adbdb712e245a7817ec6cc3dd2fd726869f0c3f5351d9863ff8fd2076464736f6c63430005100032",
  "source": "pragma solidity ^0.5.0;\r\n\r\ncontract Network {\r\n   // username selection\r\n    mapping (address => bool) public set;\r\n\r\n    mapping (address => string) public user;\r\n\r\n    string[] public username;\r\n\r\n    event SetUsernameEvent(string _name);\r\n    \r\n    event FindUsernameEvent(string _name);\r\n    // ----------\r\n\r\n    // All blogs\r\n    struct Blog {\r\n        string name;\r\n        string content;\r\n    }\r\n\r\n    mapping (uint => Blog) public blogs;\r\n\r\n    uint public numOptions;\r\n\r\n    event NewBlogAdded(string _content);\r\n    // ----------\r\n\r\n    // All mails\r\n    struct Mail {\r\n        string from;\r\n        string to;\r\n        string subject;\r\n        string content;\r\n    }\r\n\r\n    mapping (uint => Mail) public mails;\r\n\r\n    uint public num;\r\n\r\n    event NewMailAdded(string _content);\r\n    // ----------\r\n\r\n\r\n    constructor () public {   \r\n    }\r\n\r\n    function setusername(string memory _name) public {\r\n        require(!set[msg.sender], \"already set username\");\r\n\r\n        for(uint i=0; i<username.length; i++){\r\n            require(keccak256(abi.encodePacked(username[i])) != keccak256(abi.encodePacked(_name)), \"username taken\");\r\n        }\r\n\r\n        set[msg.sender] = true;\r\n        user[msg.sender] = _name;\r\n        username.push(_name);\r\n        emit SetUsernameEvent(_name);\r\n    }\r\n\r\n    function findusername(string memory _name) public {\r\n        bool flag=true;\r\n        for(uint i=0; i<username.length; i++){\r\n            if(keccak256(abi.encodePacked(username[i])) == keccak256(abi.encodePacked(_name))){\r\n                flag=true;\r\n                break;\r\n            } else{\r\n                flag=false;\r\n            }\r\n        }\r\n        if(flag==true){\r\n            emit FindUsernameEvent(_name);\r\n        } else{\r\n            require(false, \"no username found\");\r\n        }\r\n    }\r\n\r\n    function newBlog(string memory _content) public {\r\n        require(set[msg.sender], \"username not set\");\r\n        ++numOptions;\r\n        blogs[numOptions].name = user[msg.sender];\r\n        blogs[numOptions].content = _content;\r\n        emit NewBlogAdded(_content);\r\n    }\r\n\r\n    function newMail(string memory _to, string memory _subject, string memory _content) public {\r\n        require(set[msg.sender], \"username not set\");\r\n        bool flag=true;\r\n        for(uint i=0; i<username.length; i++){\r\n            if(keccak256(abi.encodePacked(username[i])) == keccak256(abi.encodePacked(_to))){\r\n                flag=true;\r\n                break;\r\n            } else{\r\n                flag=false;\r\n            }\r\n        }\r\n        if(flag==true){\r\n            ++num;\r\n            mails[num].from = user[msg.sender];\r\n            mails[num].to = _to;\r\n            mails[num].subject = _subject;\r\n            mails[num].content = _content;\r\n            emit NewMailAdded(_content);\r\n        } else{\r\n            require(false, \"no username found\");\r\n        }\r\n    }\r\n\r\n}",
  "sourcePath": "C:/Users/HP/Desktop/contract/contracts/Network.sol",
  "compiler": {
    "name": "solc",
    "version": "0.5.16+commit.9c3226ce.Emscripten.clang"
  },
  "schemaVersion": "3.0.22",
  "updatedAt": "2020-12-31T02:37:48.145Z",
  "networkType": "ethereum",
  "devdoc": {
    "methods": {}
  },
  "userdoc": {
    "methods": {}
  }
}